:020000040800F2
:10000000680500209901000841100008A70F0008AA
:100010003D10000851020008DD1200080000000039
:1000200000000000000000000000000001010008C6
:100030005502000800000000450100086D1000088E
:10004000B3010008B3010008B3010008B3010008C0
:10005000B3010008B3010008B3010008B3010008B0
:10006000B3010008B3010008B3010008B3010008A0
:10007000B3010008B3010008B3010008B301000890
:10008000B3010008B3010008B3010008B301000880
:10009000B3010008B3010008B3010008B301000870
:1000A000B3010008B3010008B3010008B301000860
:1000B000B3010008B3010008B3010008B301000850
:1000C000B3010008B3010008B3010008B301000840
:1000D000B3010008B3010008B3010008B301000830
:1000E000B3010008B3010008B3010008DFF80CD029
:1000F00000F09CF8004800472D1500086805002016
:10010000224B19680868B0E8F00F80F30988BFF344
:100110006F8F4FF0000080F311884EF00D0E704786
:100120000000000006480068006880F3088862B696
:1001300061B6BFF34F8FBFF36F8F00DF00BF00BF0B
:1001400008ED00E0EFF30980BFF36F8F0F4B1A68E3
:1001500020E9F00F106008B54FF0BF0080F3118860
:10016000BFF34F8FBFF36F8F01F02EFA4FF00000F7
:1001700080F31188BDE8084019680868B0E8F00FFE
:1001800080F30988BFF36F8F704700BF1000002015
:10019000EFF3058070470000064880470648004797
:1001A000FEE7FEE7FEE7FEE7FEE7FEE7FEE7FEE727
:1001B000FEE7FEE7E7100008ED000008D2B201E01C
:1001C00000F8012B491EFBD270470022F6E710B55C
:1001D00013460A4604461946FFF7F0FF204610BDB5
:1001E0000246C9B200E0401C0378002BFBD102E0BC
:1001F00003788B4203D0401E9042F9D20020704712
:1002000030B50B46014600202022012409E021FAE6
:1002100002F59D4205D303FA02F5491B04FA02F5E3
:100220002844151EA2F10102F1DC30BD064C074D39
:1002300006E0E06840F0010394E8070098471034B6
:10024000AC42F6D3FFF756FF3818000858180008DC
:1002500000BFFEE7704772B600BFFEE72DE9F84722
:100260000346002294466EE14FF0010808FA02F4BA
:10027000D1F8008008EA0400A0427DD1DFF8DCA2BA
:10028000D1F80480A8EB0A09D0453AD014DCB8F1C3
:10029000030F50D009DCB8F1000F31D0B8F1010FD5
:1002A0001CD0B8F1020F49D120E0B8F1110F18D0DD
:1002B000B8F1120F42D11EE0B9F5881F25D006DC37
:1002C000B9F5803F20D0B9F5801F37D11AE0B9F5D4
:1002D000001F18D0B9F5041F30D117E0D1F80CC0B9
:1002E0002DE0D1F80C8008F1040C28E0D1F80C8046
:1002F00008F1080C23E0D1F80C8008F10C0C1EE08A
:1003000000BF00BF00BF00BF00BF00BFD1F8088022
:10031000B8F1000F02D14FF0040C0BE0D1F80880C7
:10032000B8F1010F03D14FF0080C1C6102E04FF04F
:10033000080C5C6103E04FF0000C00E000BF00BF60
:10034000FF2801D8984601E003F104084646FF283B
:1003500002D84FEA820803E0A2F108084FEA8808B1
:100360004746D6F800804FF00F0909FA07F928EA46
:1003700009080CFA07F900E088E048EA0908C6F81D
:100380000080D1F8048008F08058B8F1805F7DD1FA
:1003900000BFDFF8CC81D8F8188048F00108DFF8FA
:1003A000C091C9F81880C846D8F8188008F001082C
:1003B000CDF8008000BF00BF4FEAB9384FEA92097C
:1003C00058F829504FEA82784FEA18794FF00F0811
:1003D00008FA09F825EA0805DFF88881434502D1C3
:1003E0004FF0000816E0DFF88081434502D14FF05E
:1003F00001080FE0DFF87481434502D14FF0020895
:1004000008E0DFF86C81434502D14FF0030801E0BA
:100410004FF004084FEA82794FEA197908FA09F88F
:1004200048EA0505DFF84C814FEA920948F829505F
:10043000D1F8048008F48018B8F5801F0AD1DFF8DD
:100440003881D8F8008048EA0008DFF82C91C9F814
:10045000008009E0DFF82081D8F8008028EA000851
:10046000DFF81491C9F80080D1F8048008F400186E
:10047000B8F5001F10D1DFF8008108F10408D8F8A2
:10048000008048EA0008DFF8F09000E05AE009F147
:100490000409C9F800800DE0DFF8DC8008F10408E9
:1004A000D8F8008028EA0008DFF8CC9009F10409A8
:1004B000C9F80080D1F8048008F40038B8F5003F8E
:1004C0000ED1DFF8B480A8F10408D8F8008048EA1B
:1004D0000008DFF8A490A9F10409C9F800800DE034
:1004E000DFF89480A8F10408D8F8008028EA000812
:1004F000DFF88490A9F10409C9F80080D1F80480DC
:1005000008F48038B8F5803F0ED1DFF86C80A8F190
:100510000808D8F8008048EA0008DFF85C90A9F1E4
:100520000809C9F800800DE0DFF84C80A8F1080840
:10053000D8F8008028EA0008DFF83C90A9F1080903
:10054000C9F80080521CD1F8008028FA02F8B8F1EE
:10055000000F7FF489AEBDE8F8870000000011109D
:100560000010024000080140000C01400010014052
:1005700000140140080001400804014001480068DF
:100580007047000000000020034800680349097814
:10059000084401490860704700000020080000205E
:1005A00010B50848006840F01000064908600320B4
:1005B00000F098F80F2000F007F800F02BF800206A
:1005C00010BD00000020024070B504460E480078BF
:1005D0004FF47A71B1FBF0F00C490968B1FBF0F50A
:1005E000284600F0E9FB08B1012070BD102C07D2AD
:1005F00000222146501E00F037F80548046001E053
:100600000120F2E70020F0E7080000200C000020A5
:100610000400002008B500BF1148806940F00100C7
:100620000F4988610846806900F00100009000BF12
:1006300000BF00BF0846C06940F08050C86108464E
:10064000C06900F08050009000BF00BF00BF0549A6
:10065000486820F0E06040F00070486000BF08BDCE
:1006600000100240000001402DE9F05F80460D4679
:100670001646002700F044FE074639462A46334610
:1006800001F00700C0F1070ABAF1040F02D94FF0D8
:10069000040A01E0C0F1070AD14600F1040ABAF1E8
:1006A000070F02D24FF0000A01E0A0F1030AD4467E
:1006B0004FF0010A0AFA09FAAAF1010A0AEA020A43
:1006C0000AFA0CFA4FF0010B0BFA0CFBABF1010B21
:1006D0000BEA030B4AEA0B042146404600F018FEE1
:1006E000BDE8F09F00BF00F00702064B19684FF607
:1006F000FF031940044B0B4343EA0221014B1960ED
:1007000000BF70470CED00E00000FA0570B504462C
:100710000D460CB9012070BD5A48006800F0070072
:10072000A8420ED25748006820F0070028435549D8
:1007300008600846006800F00700A84201D00120C8
:10074000E9E7207800F0020002281DD1207800F0AF
:100750000400042805D14C48406840F4E0604A4950
:100760004860207800F00800082805D14648406815
:1007700040F46050444948604348406820F0F0002D
:10078000A168084340494860207800F0010078B330
:100790006068012806D13C48006800F4003090B938
:1007A0000120B8E76068022806D13748006800F0E9
:1007B000007040B90120AEE73348006800F0020045
:1007C00008B90120A7E73048406820F003006168BD
:1007D00008432D494860FFF7D1FE064609E0FFF7C0
:1007E000CDFE801B41F28831884202D9032092E776
:1007F00007E02548406800F00C006168B0EB810F0D
:10080000EDD12048006800F00700A8420ED91D482D
:10081000006820F0070028431A490860084600686D
:1008200000F00700A84201D0012074E7207800F012
:100830000400042807D11448406820F4E060E1680F
:10084000084311494860207800F00800082808D1C2
:100850000D48406820F46050216940EAC1000A490F
:10086000486000F03FF808494968C1F30311074A9E
:10087000515CC8400649086006480068FFF7A4FEBE
:10088000002048E700200240001002401E18000827
:100890000C000020040000200148006870470000A0
:1008A0000C00002000B5FFF7F7FF04494968C1F3C9
:1008B0000221034A515CC84000BD00000010024004
:1008C0002E18000800B5FFF7E7FF04494968C1F397
:1008D000C221034A515CC84000BD00000010024024
:1008E0002E18000870B500210022002400230020EB
:1008F000134D696801F00C05F5B1042D02D0082DE7
:1009000019D101E00F4819E00F4DC1F38346AB5DEB
:1009100001F4803555B10A4D6D68C5F340450B4E65
:10092000725D084D5D43B5FBF2F402E0084D03FB38
:1009300005F4204602E000BF024800BF00BF70BDC2
:100940000010024000127A000C1800081C18000861
:1009500000093D00F8B504460CB90120F8BD207827
:1009600000F00100002878D0F848406800F00C0042
:1009700004280CD0F548406800F00C00082811D17C
:10098000F248406800F48030B0F5803F0AD1EF486B
:10099000006800F4003000285FD0606800285CD157
:1009A0000120DBE700BF6068B0F5803F06D1E74873
:1009B000006840F48030E549086028E0606858B974
:1009C000E248006820F48030E0490860084600688A
:1009D00020F4802008601AE06068B0F5A02F0BD1E9
:1009E000DA48006840F48020D8490860084600686A
:1009F00040F4803008600AE0D448006820F4803079
:100A0000D24908600846006820F48020086000BFD2
:100A1000606888B1FFF7B2FD054606E0FFF7AEFD5E
:100A2000401B642801D9032098E7C848006800F4F7
:100A300000300028F2D010E0FFF7A0FD054606E0E8
:100A4000FFF79CFD401B642801D9032086E7BF48BF
:100A5000006800F400300028F2D1207800F0020095
:100A6000022857D1B948406800F00C0050B1B7488F
:100A7000406800F00C00082818D1B448406800F421
:100A8000803098B9B148006800F0020020B12069B8
:100A9000012801D0012061E7AC48006820F0F8008F
:100AA000616940EAC100A949086033E02069E8B102
:100AB0000120A7490860FFF761FD054606E0FFF742
:100AC0005DFD401B022801D9032047E79F480068CD
:100AD00000F002000028F2D09C48006820F0F800E6
:100AE000616940EAC1009949086013E00020984913
:100AF0000860FFF743FD054606E0FFF73FFD401B9A
:100B0000022801D9032029E79048006800F002007C
:100B10000028F2D1207800F0080008282DD1A06923
:100B2000B8B101208B490860FFF728FD054606E0B3
:100B3000FFF724FD401B022801D903200EE783485C
:100B4000406A00F002000028F2D0012000F07AFA9A
:100B500013E000207F490860FFF710FD054606E01E
:100B6000FFF70CFD401B022801D90320F6E6774869
:100B7000406A00F002000028F2D1207800F0040062
:100B8000042873D100277148C06900F0805070B903
:100B900000BF6E48C06940F080506C49C86108468B
:100BA000C06900F08050009000BF00BF01276A4874
:100BB000006800F48070B0B96748006840F4807045
:100BC00065490860FFF7DAFC054606E0FFF7D6FC4A
:100BD000401B642801D90320C0E65F48006800F488
:100BE00080700028F2D000BFE068012806D1574885
:100BF000006A40F001005549086227E0E06858B9F2
:100C00005248006A20F00100504908620846006A14
:100C100020F00400086219E0E06805280BD14B4879
:100C2000006A40F00400494908620846006A40F042
:100C3000010008620AE04548006A20F001004349CB
:100C400008620846006A20F00400086200BFE068FD
:100C5000A0B1FFF793FC054609E0FFF78FFC401BAE
:100C600041F28831884202D9032077E622E03748F2
:100C7000006A00F002000028EFD012E0FFF77EFCCF
:100C8000054608E0FFF77AFC401B41F288318842B4
:100C900001D9032062E62D48006A00F00200002816
:100CA000F0D1012F05D12948C06920F08050274993
:100CB000C86100BFE069C8B32448406800F00C0078
:100CC000082860D0E069022848D100202049086641
:100CD000FFF754FC054606E0FFF750FC401B0228D6
:100CE00001D903203AE61948006800F00070002896
:100CF000F2D1206AB0F5803F07D11448406820F453
:100D00000030A168084311494860D4E9080108434C
:100D10000E49496821F4741108430C4948600120C8
:100D20000B490866FFF72AFC054607E03DE0FFF7A0
:100D300025FC401B022801D903200FE60348006868
:100D400000F000700028F2D02FE0000000100240F8
:100D500000004242800442420070004000201449DA
:100D60000866FFF70BFC054606E0FFF707FC401B93
:100D7000022801D90320F1E50E48006800F0007058
:100D80000028F2D111E0E069012800D1E6E5094828
:100D9000466806F48031206A814204D106F470115D
:100DA000606A814201D00120D8E50020D6E500002C
:100DB000000042420010024070B504462546681EFD
:100DC000B0F1807F01D301200FE0681E4FF0E021D9
:100DD00048610F214FF0FF3000F09AFA00204FF0E9
:100DE000E021886107200861002070BD10B504462D
:100DF0000CB9012010BDA06900B100E000BF94F85B
:100E0000410028B9002084F84000204600F02AF86C
:100E1000242084F841002068C06820F40050216834
:100E2000C860204600F096F92068006920F49040E0
:100E3000216808612068406920F02A002168486123
:100E40002068C06840F400502168C86000206064D9
:100E5000202084F8410084F842000020606300BF35
:100E6000C8E7000010B586B0044600200290039049
:100E7000049005901949206888422DD100BF184878
:100E8000C06940F400301649C8610846C06900F4E2
:100E90000030019000BF00BF00BF0846806940F0ED
:100EA000040088610846806900F00400019000BFDA
:100EB00000BF04200290022003900320059002A9A5
:100EC0000848FFF7CBF90820029000200390049017
:100ED00002A90448FFF7C2F906B010BD0044004063
:100EE00000100240000801402DE9F84F04460E466C
:100EF000174699464FF0000A94F84100202850D137
:100F000006B117B90120BDE8F88F002060642120E8
:100F100084F84100FFF732FB8246A784E784A0688B
:100F2000B0F5805F04D1206910B90025B04602E019
:100F300035464FF000081EE053460022802120462F
:100F4000CDF8009000F084F920B1202084F8410011
:100F50000320D8E745B9B8F80000C0F308002168BD
:100F6000486008F1020803E02878216848606D1C99
:100F7000E08C401EE084E08C0028DDD15346002246
:100F800040212046CDF8009000F062F920B12020E9
:100F900084F841000320B6E7202084F841000020B7
:100FA000B1E70220AFE700BFFEE7000008B500BFD1
:100FB0001348806940F01000114988610846806933
:100FC00000F01000009000BF00BF00BF084680691D
:100FD00040F0200088610846806900F02000009001
:100FE00000BF00BF00BF0846806940F00400886170
:100FF0000846806900F00400009000BF00BF08BDF3
:101000000010024010B50B480B4908604FF4E13066
:101010004860002108488160C16001610C21416184
:1010200000218161C161FFF7E1FE08B1FFF713F90B
:1010300010BD0000004400405400002000BFFEE747
:1010400000BFFEE708B508490968C9084FF47A727D
:10105000B1FBF2F14143009100BF00BF00994A1E6D
:1010600000920029F9D108BD0C00002010B500F055
:10107000F5FA012801D000F0D7FAFFF785FA10BD84
:1010800000B58FB0282105A8FFF79FF81421684606
:10109000FFF79BF8012005900004069000200790C0
:1010A0000120099002200C90C1030D914FF4E01132
:1010B0000E9105A8FFF74EFC08B1FFF7CCF80F2002
:1010C000009002200190002002904FF48060039075
:1010D0000020049002216846FFF718FB08B1FFF7D3
:1010E000BAF80FB000BD704700BF00BF02680C32F5
:1010F00052E8002F22F4907102680C3242E800138B
:10110000002BF3D100BF00BF00BF0268143252E8C9
:10111000002F22F001010268143242E80013002B74
:10112000F3D100BF016B01290ED100BF00BF0268DF
:101130000C3252E8002F22F0100102680C3242E813
:101140000013002BF3D100BF202180F842100021B2
:101150000163704770B504462168096921F4405164
:10116000E2681143226811612269A1681143626932
:1011700041EA02052168C96841F20C6291432943A2
:101180002268D1602168496921F44071A269114344
:10119000226851612D4A2168914202D1FFF792FBEA
:1011A00001E0FFF77FFB00EBC00101EB001162687B
:1011B0009200B1FBF2F100EBC00202EB0012636897
:1011C0009B00B2FBF3F26423B2FBF3F202EBC20327
:1011D00003EB0212A1EB8201322202EB0111642225
:1011E000B1FBF2F101F0F00100EBC00202EB0012E2
:1011F00063689B00B2FBF3F26423B2FBF3F201EBF2
:10120000021200EBC00101EB001163689B00B1FB0F
:10121000F3F100EBC00303EB00136668B600B3FB09
:10122000F6F36426B3FBF6F303EBC30606EB0313F6
:10123000A1EB8301322303EB01116423B1FBF3F132
:1012400001F00F0111442268916070BD0038014027
:101250002DE9F84304460D4617469846089E31E0AE
:10126000701C70B3FFF78AF9A0EB0800B04200D8F9
:1012700016B90320BDE8F8832068C06800F00400B8
:10128000F8B1802D1ED0402D1CD020680068C0F31E
:10129000C000B0B100BF002000902068006800903E
:1012A00020684068009000BF00BF2046FFF71CFF89
:1012B0000820606400BF002084F8400000BF0120C7
:1012C000D8E7FFE7206800682840A84201D1012044
:1012D00000E00020B842C3D00020CBE700BFFEE70B
:1012E0000FB4054B10B503A9044A029800F034F876
:1012F00010BC5DF814FB0000111500085000002020
:1013000002480068C0F30220704700000CED00E0C6
:1013100010B5002804DB0A07130E054A135406E033
:101320000A07140E034A00F00F031B1FD45410BD0C
:1013300000E400E018ED00E002E008C8121F08C158
:10134000002AFAD170477047002001E001C1121F46
:10135000002AFBD1704700002DE9FF4F8BB09A4661
:101360000F460546002606E025280BD052460D996B
:1013700090476D1C761C28780028F5D10FB03046B8
:10138000BDE8F08F0024A0460122604900E004433C
:1013900015F8013F203B02FA03F00842F7D1287804
:1013A0002E2817D115F8010F44F004042A280ED076
:1013B0006FF02F022878A0F1300109290AD808EB34
:1013C000880102EB410100EB01086D1CF2E757F8C0
:1013D000048B6D1C287869283ED006DC0028CDD00F
:1013E00063280BD0642804D136E0732810D0752808
:1013F0004BD052460D999047761C85E017F8040BA8
:101400008DF8000000208DF80100E946012003E07E
:1014100057F8049B4FF0FF3061074FF0000401D4F0
:101420000AE0641C44450DDA8442FADB19F8041022
:101430000029F6D106E0641C8442FCDB19F8041094
:101440000029F8D1264404E019F8010B52460D9901
:101450009047641EF8D257E001CF4FF00A0B0028E6
:1014600002DA40422D2102E0210504D52B218DF81E
:101470002410012103E0E10705D02021F7E70DF159
:10148000200908910CE00021F9E701CF4FF00A0B89
:10149000F9E75946FEF7B4FE01F1300209F8012DD3
:1014A0000028F6D1ADEB090000F1200B600701D454
:1014B0004FF00108D84502DDA8EB0B0000E000204A
:1014C0008046002406E009A85246005D0D99904729
:1014D000641C761C08988442F5DB04E030205246F8
:1014E0000D999047761CB8F10001A8F10108F5DCD0
:1014F00005E019F8010B52460D999047761CBBF197
:101500000001ABF1010BF4DC6D1C34E7092801008C
:1015100013B50C464FF47A73012269460248FFF76F
:10152000E3FC00981CBD000054000020FFF738F8D1
:10153000FFF7A6FDFFF73AFDFFF764FD5C2109A068
:10154000FEF74EFE28B15C2106A0FEF749FE401CC6
:1015500000E004A004465E22214607A0FFF7C0FE7B
:1015600000BFFEE72E2E2F436F72652F5372632F3D
:101570006D61696E2E6300005B44454255475D20F6
:1015800025733A25643A2048656C6C6F20576F725A
:101590006C64210A0A00000009480068006808B964
:1015A000012000E0002020B14FF0FF300549086025
:1015B00005E003480068C068006802490860704799
:1015C00014000020400000201248006818B10120DB
:1015D000114908601DE000200F4908600F480068AD
:1015E000B0FA80F0C0F11F0101EB81020C4B03EB5C
:1015F000820042685268426000F1080243689342E8
:1016000002D14268526842604268D268054B1A6053
:1016100000BF70474C00002034000020280000204C
:101620009C0000201000002010B500BFBF2080F3F8
:101630001188BFF34F8FBFF36F8F00BF00F01EF80C
:1016400018B14FF080500449086000BF002080F3BB
:10165000118800BF10BD000004ED00E005490968D5
:1016600009B9012005E00449096809B9022000E030
:10167000002070472C0000204C0000202DE9F04194
:1016800000275748006800287ED156480068451C4E
:10169000544805608DB95448D0F80080534800681C
:1016A000514908605148C0F8008051480068401C0A
:1016B0004F490860FFF770FF00BF4E480068854241
:1016C00076D300BF48480068006808B9012000E0F0
:1016D000002020B14FF0FF304649086067E04248E3
:1016E0000068C068C4686668B54202D241480660B6
:1016F0005DE06069D4E902128A60D4E902214A609F
:10170000211D42688A4201D1E16841600022626184
:101710000168491E0160A06A98B1A06AD4E9071265
:101720008A60D4E907214A6004F1180142688A42BC
:1017300001D1216A41600022A2620168491E016054
:1017400000BF94F82C10012088402B4909680843F9
:1017500029490860E16A01EB8101284A02EB810115
:101760004868A0608268E260211D826851608160E3
:10177000E16A01EB8101214A02EB81026261E16AC7
:1017800001EB81011D4A00E022E052F82110491CC2
:10179000E26A02EB8202194B43F822101849E06A10
:1017A0000968C96A88428DD901278BE700E000BF2C
:1017B00013480068C06A00EB8000104951F820000F
:1017C000012800D901270F48006800B1012704E073
:1017D0000D480068401C0C4908603846BDE8F0819F
:1017E0004C000020240000201400002018000020DD
:1017F0003800002040000020280000209C0000202D
:1018000010000020340000203000002002030405F6
:10181000060708090A0B0C0D0E0F1010010200003C
:101820000000000000000102030406070809000090
:101830000000010203040000581800080000002006
:101840005400000038130008AC18000854000020B1
:1018500014050000481300080000000010000000FC
:101860000100000000127A000000000000000000EB
:101870000000000000000000000000000000000068
:101880000000000000000000000000000000000058
:101890000000000000000000000000000000000048
:0C18A00004000000000000000000000038
:04000005080000ED02
:00000001FF
