:020000040800F2
:10000000A04A00209901000815230008231F0008BA
:1000100011230008D9040008752A00080000000018
:1000200000000000000000000000000001010008C6
:10003000190500080000000045010008E527000838
:10004000B3010008B3010008B3010008B3010008C0
:10005000B3010008B3010008B3010008B3010008B0
:10006000B3010008B3010008B3010008DD04000873
:10007000B3010008B3010008B3010008B301000890
:10008000B3010008B3010008B3010008B301000880
:10009000B3010008B3010008B3010008B301000870
:1000A000B3010008B3010008B3010008B301000860
:1000B000B3010008B3010008B3010008B301000850
:1000C000B3010008B3010008B3010008B301000840
:1000D000B3010008B3010008B3010008B301000830
:1000E000B3010008B3010008B3010008DFF80CD029
:1000F00000F0C8F800480047C5300008A04A0020BA
:10010000224B19680868B0E8F00F80F30988BFF344
:100110006F8F4FF0000080F311884EF00D0E704786
:100120000000000006480068006880F3088862B696
:1001300061B6BFF34F8FBFF36F8F00DF00BF00BF0B
:1001400008ED00E0EFF30980BFF36F8F0F4B1A68E3
:1001500020E9F00F106008B54FF0BF0080F3118860
:10016000BFF34F8FBFF36F8F03F08EFB4FF0000094
:1001700080F31188BDE8084019680868B0E8F00FFE
:1001800080F30988BFF36F8F704700BF1000002015
:10019000EFF3058070470000064880470648004797
:1001A000FEE7FEE7FEE7FEE7FEE7FEE7FEE7FEE727
:1001B000FEE7FEE77D280008ED000008202A04DBAA
:1001C000203A21FA02F00021704721FA02F3D040D0
:1001D000C2F120029140084319467047D2B201E0B3
:1001E00000F8012B491EFBD270470022F6E710B53C
:1001F00013460A4604461946FFF7F0FF204610BD95
:100200000246C9B200E0401C0378002BFBD102E09B
:1002100003788B4203D0401E9042F9D200207047F1
:100220002DE9F05F0546002092469B46884606462B
:10023000814640241BE02846414647462246FFF7B8
:10024000BDFF53465A46C01A914110D31146184675
:10025000224600F029F82D1A67EB01084F46224686
:100260000120002100F020F817EB00094E41201E6C
:10027000A4F10104DFDC484631462A464346BDE886
:10028000F09F0000064C074D06E0E06840F00103D7
:1002900094E8070098471034AC42F6D3FFF72AFFE2
:1002A000703D0008903D0008202A04DB203A00FA47
:1002B00002F1002070479140C2F1200320FA03F3BD
:1002C00019439040704770B5044600252068806847
:1002D00000F0010018B32068806820F00100216858
:1002E000886000F08DFE054613E000F089FE401B9B
:1002F00002280ED92068806800F0010048B1A06A89
:1003000040F01000A062E06A40F00100E0620120CD
:1003100070BD2068806800F001000028E5D1002051
:10032000F6E770B505466C6AA06A00F05000E0B9C7
:10033000A06A40F40070A0622068806800F4602029
:10034000B0F5602F0DD1207B58B9A06A20F48070E1
:10035000A062A06A00F4805018B9A06A40F00100C1
:10036000A062204600F08CF903E0206A016B284669
:10037000884770BD70B505466C6AA06A40F04000C1
:10038000A062E06A40F00400E062204600F07AF9E2
:1003900070BD70B50446656A284600F072F970BDFC
:1003A00038B504460025002000902068806800F0E1
:1003B000010078BB2068806840F0010021688860F7
:1003C000194800681949B0FBF1F0009002E000986C
:1003D000401E009000980028F9D100F011FE05465B
:1003E00019E000F00DFE401B022814D92068806837
:1003F00000F0010078B9A06A40F01000A062E06A45
:1004000040F00100E06200BF002084F8240000BF3B
:10041000012038BD05E02068806800F00100002858
:10042000DFD00020F5E700000C00002040420F0064
:100430001CB51548042100238022CDE9001013A12A
:10044000154803F085FA1548032100238022CDE9E1
:10045000001013A1154803F07BFA15480221002370
:100460008022CDE9001013A1144803F071FA14485A
:10047000022100238022CDE9001012A1154803F0CB
:1004800067FA03F0C3F91CBD70000020506F776558
:10049000725461736B000000453100087400002045
:1004A000436F6D6D5461736B00000000552F0008A1
:1004B000780000204B65795461736B003930000877
:1004C000840000204A6F79737469636B5461736BA5
:1004D000000000009D2F000800BFFEE710B5024895
:1004E00000F08CFA10BD0000F000002030B590F84C
:1004F00040500124AC40C56B6C6004686360446884
:10050000102C04D10468A2600468E16003E0046870
:10051000A1600468E26030BD704772B600BFFEE7BC
:1005200038B5024600230020009000BF92F8240056
:10053000012801D1022038BD012082F8240000BF2B
:100540004868072812D21068406B0C79641E04EBCF
:1005500084051F24AC40A0430D796D1E05EB850575
:100560000C68AC4020431468606327E048680D289D
:1005700012D21068006B0C79E41F04EB84051F2471
:10058000AC40A0430D79ED1F05EB85050C68AC4030
:1005900020431468206311E01068C06A0C790D3C98
:1005A00004EB84051F24AC40A0430D790D3D05EB01
:1005B00085050C68AC4020431468E06208680A288E
:1005C00012D31068C0680C780A3C04EB4405072479
:1005D000AC40A0430D780A3D05EB45058C68AC4066
:1005E00020431468E0600FE0106800690C7804EBA9
:1005F00044050724AC40A0430D7805EB45058C6805
:10060000AC402043146820610868102802D00868B4
:10061000112827D1174C1068A0421ED1106880689D
:1006200000F40000F0B91068806840F4000014681D
:10063000A0600868102815D10F4800680F4CB0FB67
:10064000F4F000EB80004000009002E00098401EB3
:10065000009000980028F9D104E0906A40F0200052
:100660009062012300BF002082F8240000BF1846DA
:1006700061E70000002401400C00002040420F0010
:1006800070477047704700002DE9F041044600278D
:1006900000250026A84614B90120BDE8F081A06815
:1006A00010B1207D00B100BFA06A30B90020E06227
:1006B00084F82400204600F089F82046FFF703FE66
:1006C0000746A06A00F01000002873D1002F71D1F6
:1006D000A06A20F4885040F00200A062E1696068DE
:1006E0000843217B40EA41000643A068B0F5807FC3
:1006F00002D0A068012802D14FF4807000E00020F1
:100700000543207D012811D1207B38B9A069401E06
:100710004FF4006141EA4030054307E0A06A40F031
:100720002000A062E06A40F00100E06220684068BA
:1007300020F4694028432168486020688068214986
:100740000840304321688860A068B0F5807F02D0FF
:10075000A068012802D14FF4807000E00020B0F5BD
:10076000807F03D1208A401E4FEA00582068C06A6B
:1007700020F4700040EA08002168C86220688068A0
:1007800011490840B04208D10020E062A06A20F080
:10079000020040F00100A06211E0A06A20F0020017
:1007A00040F01000A062E06A40F00100E062012722
:1007B00005E0FFE7A06A40F01000A062012738467C
:1007C0006BE70000FDF7E1FFFE0E1FFF10B586B0DE
:1007D000044600200290039004900590224920686E
:1007E00088423ED100BF2148806940F400701F4913
:1007F00088610846806900F40070019000BF00BF66
:1008000000BF0846806940F004008861084680699E
:1008100000F00400019000BF00BF4E2002900320B2
:10082000039002A9124800F04DFA124812490860DC
:10083000002048600021104881608021C16049008B
:10084000016189004161202181610021C16100F0C5
:10085000A3F908B1FFF761FE00BF074820624462B8
:1008600000BF06B010BD000000240140001002408F
:100870000008014008000240F00000202DE9F0418E
:1008800004460D461646002757492068884203D083
:1008900056492068884205D15348001D006800F47D
:1008A000702000E0002000287ED100BF94F82400D2
:1008B000012802D10220BDE8F081012084F8240043
:1008C00000BF2046FFF76CFD0746002F6DD1A06AE0
:1008D00040F60161884340F48070A062434920687B
:1008E000884209D14048001D006800F4702008B912
:1008F000012002E0002000E0012078B1A06A20F48D
:100900008010A0622068406800F4806000B3A06A94
:1009100020F4005040F48050A06219E0A06A40F436
:100920008010A06230492068884203D02F49206897
:10093000884205D12C48001D006800F4806000E06A
:10094000002028B1A06A20F4005040F48050A0623A
:10095000A06A00F4805020B1E06A20F00600E06256
:1009600001E00020E06200BF002084F8240000BF06
:100970001F48216A88621F48216AC8621E48216A8E
:1009800008636FF00200216808602068806840F406
:10099000807021688860226802F14C0133462A4643
:1009A000206A00F02DF901E01AE014E02068806868
:1009B00000F46020B0F5602F06D12068806840F414
:1009C000A000216888600CE02068806840F48010F6
:1009D0002168886005E000BF002084F8240000E062
:1009E0000127384667E70000002401400028014045
:1009F00023030008930300087503000870B504463C
:100A0000E06B05682068066894F840100420884070
:100A10002840002846D006F00400002842D0206874
:100A2000006800F0200028B92068006820F0040069
:100A30002168086057492068884201D1042027E0D6
:100A4000544914312068884201D1402020E05149A6
:100A500028312068884201D1001519E04D493C3108
:100A60002068884202D14FF4804011E0494950315A
:100A70002068884202D14FF4802009E04549643162
:100A80002068884202D14FF4800001E04FF080607E
:100A9000404908394860E06A00287AD02046E16A77
:100AA000884776E094F84010022088402840A0B3A0
:100AB00006F0020088B32068006800F0200040B90A
:100AC0002068006820F00A0021680860012084F88E
:100AD000210030492068884201D1022028E02D49B8
:100AE00014312068884201D1202021E02949283191
:100AF0002068884201D140151AE026493C3120681F
:100B0000884202D14FF4005012E02249503120684F
:100B1000884203D14FF400300AE017E01D496431E8
:100B20002068884202D14FF4001001E04FF00070BD
:100B300018490839486000BF002084F8200000BF31
:100B4000A06A30B32046A16A884722E094F840109A
:100B5000082088402840E0B106F00800C8B12068AD
:100B6000006820F00E002168086094F84010012011
:100B70008840E16B48600120A06384F8210000BF39
:100B8000002084F8200000BF206B10B12046216BAC
:100B9000884770BD080002400146002209B90120C3
:100BA0007047164B0868C01A1423B0FBF3F080009E
:100BB000086412480838C863022081F821000868D8
:100BC000026843F6F0708243D1E901031843CB6811
:100BD00018430B6918434B6918438B691843CB6959
:100BE000184302430868026000208863012081F8EE
:100BF0002100002081F8200000BFD1E7080002405A
:100C00002DE9F04104460D4616461F464FF00008F8
:100C100000BF94F82000012802D10220BDE8F08135
:100C2000012084F8200000BF94F8210001282CD175
:100C3000022084F821000020A0632068006820F0D2
:100C40000100216808603B46324629462046FFF7EE
:100C50004DFCE06A30B12068006840F00E00216869
:100C600008600BE02068006820F00400216808603C
:100C70002068006840F00A00216808602068006869
:100C800040F001002168086006E000BF002084F801
:100C9000200000BF4FF002084046BFE770B5044691
:100CA00000F0AEF906462546681C10B104480078ED
:100CB000054400BF00F0A4F9801BA842FAD370BD20
:100CC000080000202DE9F8470346002294466EE113
:100CD0004FF0010808FA02F4D1F8008008EA040095
:100CE000A0427DD1DFF8DCA2D1F80480A8EB0A098C
:100CF000D0453AD014DCB8F1030F50D009DCB8F17C
:100D0000000F31D0B8F1010F1CD0B8F1020F49D15A
:100D100020E0B8F1110F18D0B8F1120F42D11EE047
:100D2000B9F5881F25D006DCB9F5803F20D0B9F58C
:100D3000801F37D11AE0B9F5001F18D0B9F5041F8C
:100D400030D117E0D1F80CC02DE0D1F80C8008F1BB
:100D5000040C28E0D1F80C8008F1080C23E0D1F84D
:100D60000C8008F10C0C1EE000BF00BF00BF00BFEC
:100D700000BF00BFD1F80880B8F1000F02D14FF0DA
:100D8000040C0BE0D1F80880B8F1010F03D14FF04B
:100D9000080C1C6102E04FF0080C5C6103E04FF0AE
:100DA000000C00E000BF00BFFF2801D8984601E01A
:100DB00003F104084646FF2802D84FEA820803E000
:100DC000A2F108084FEA88084746D6F800804FF09D
:100DD0000F0909FA07F928EA09080CFA07F900E0EF
:100DE00088E048EA0908C6F80080D1F8048008F0D5
:100DF0008058B8F1805F7DD100BFDFF8CC81D8F892
:100E0000188048F00108DFF8C091C9F81880C8467A
:100E1000D8F8188008F00108CDF8008000BF00BFA6
:100E20004FEAB9384FEA920958F829504FEA8278C8
:100E30004FEA18794FF00F0808FA09F825EA080573
:100E4000DFF88881434502D14FF0000816E0DFF853
:100E50008081434502D14FF001080FE0DFF8748133
:100E6000434502D14FF0020808E0DFF86C814345AA
:100E700002D14FF0030801E04FF004084FEA8279F5
:100E80004FEA197908FA09F848EA0505DFF84C81B4
:100E90004FEA920948F82950D1F8048008F48018E4
:100EA000B8F5801F0AD1DFF83881D8F8008048EA09
:100EB0000008DFF82C91C9F8008009E0DFF82081F4
:100EC000D8F8008028EA0008DFF81491C9F80080FB
:100ED000D1F8048008F40018B8F5001F10D1DFF82D
:100EE000008108F10408D8F8008048EA0008DFF81B
:100EF000F09000E05AE009F10409C9F800800DE023
:100F0000DFF8DC8008F10408D8F8008028EA00083F
:100F1000DFF8CC9009F10409C9F80080D1F8048009
:100F200008F40038B8F5003F0ED1DFF8B480A8F11E
:100F30000408D8F8008048EA0008DFF8A490A9F176
:100F40000409C9F800800DE0DFF89480A8F10408D6
:100F5000D8F8008028EA0008DFF88490A9F1040995
:100F6000C9F80080D1F8048008F48038B8F5803FD3
:100F70000ED1DFF86C80A8F10808D8F8008048EAA4
:100F80000008DFF85C90A9F10809C9F800800DE0BD
:100F9000DFF84C80A8F10808D8F8008028EA00089B
:100FA000DFF83C90A9F10809C9F80080521CD1F87B
:100FB000008028FA02F8B8F1000F7FF489AEBDE88E
:100FC000F8870000000011100010024000080140E6
:100FD000000C0140001001400014014008000140D5
:100FE00008040140024693680B400BB1012000E069
:100FF000002070470AB1016101E00B0403617047F2
:1010000001480068704700000000002003480068A5
:10101000034909780844014908607047000000202E
:101020000800002010B50848006840F0100006498C
:101030000860032000F0A8F80F2000F007F800F087
:101040002BF8002010BD00000020024070B50446BF
:101050000E4800784FF47A71B1FBF0F00C49096842
:10106000B1FBF0F5284600F063FE08B1012070BD29
:10107000102C07D200222146501E00F047F80548E8
:10108000046001E00120F2E70020F0E70800002002
:101090000C0000200400002008B500BF1148806942
:1010A00040F001000F4988610846806900F00100A6
:1010B000009000BF00BF00BF0846C06940F08050EC
:1010C000C8610846C06900F08050009000BF00BFB2
:1010D00000BF0549486820F0E06040F000704860BB
:1010E00000BF08BD00100240000001400146084654
:1010F000002809DB00F01F0301229A4043099B00EE
:1011000003F1E023C3F8002100BF70472DE9F05F31
:1011100080460D461646002701F0BEFC07463946BC
:101120002A46334601F00700C0F1070ABAF1040F5E
:1011300002D94FF0040A01E0C0F1070AD14600F1DC
:10114000040ABAF1070F02D24FF0000A01E0A0F141
:10115000030AD4464FF0010A0AFA09FAAAF1010A71
:101160000AEA020A0AFA0CFA4FF0010B0BFA0CFB1E
:10117000ABF1010B0BEA030B4AEA0B042146404694
:1011800001F092FCBDE8F09F00BF00F00702064BA3
:1011900019684FF6FF031940044B0B4343EA022141
:1011A000014B196000BF70470CED00E00000FA052C
:1011B000F8B5044600260025207800F0010000283C
:1011C0006BD000274348C06900F0805070B900BF61
:1011D0004048C06940F080503E49C8610846C06937
:1011E00000F08050009000BF00BF01273A4800681F
:1011F00000F48070B0B93848006840F48070364917
:101200000860FFF7FDFE064606E0FFF7F9FE801BCB
:10121000642801D90320F8BD2F48006800F48070CD
:101220000028F2D02B48006A00F440752DB3A08846
:1012300000F44070A84220D02648006A20F440758F
:10124000012026490860002008602248056205F058
:10125000010090B1FFF7D4FE064608E0FFF7D0FE8C
:10126000801B41F28831884201D90320D3E7194815
:10127000006A00F002000028F0D01648006A20F44E
:1012800040706168084313490862012F04D1084681
:10129000C06920F08050C86100BF207800F00200D3
:1012A000022807D10B48406820F44040A168084359
:1012B00008494860207800F01000102807D1054840
:1012C000406820F48000E16808430249486000203B
:1012D000A1E70000001002400070004040044242BC
:1012E00070B504460D460CB9012070BD5A4800681F
:1012F00000F00700A8420ED25748006820F007000F
:101300002843554908600846006800F00700A842D5
:1013100001D00120E9E7207800F0020002281DD169
:10132000207800F00400042805D14C48406840F4BF
:10133000E0604A494860207800F00800082805D19C
:101340004648406840F4605044494860434840681B
:1013500020F0F000A168084340494860207800F080
:10136000010078B36068012806D13C48006800F4A9
:10137000003090B90120B8E76068022806D13748EC
:10138000006800F0007040B90120AEE73348006803
:1013900000F0020008B90120A7E73048406820F0BB
:1013A0000300616808432D494860FFF729FE06469F
:1013B00009E0FFF725FE801B41F28831884202D9FF
:1013C000032092E707E02548406800F00C006168C0
:1013D000B0EB810FEDD12048006800F00700A84273
:1013E0000ED91D48006820F0070028431A490860FC
:1013F0000846006800F00700A84201D0012074E709
:10140000207800F00400042807D11448406820F434
:10141000E060E168084311494860207800F0080066
:10142000082808D10D48406820F46050216940EA3E
:10143000C1000A49486000F03FF808494968C1F313
:101440000311074A515CC840064908600648006815
:10145000FFF7FCFD002048E700200240001002409A
:10146000563D00080C0000200400002001480068E0
:10147000704700000C00002000B5FFF7F7FF04499B
:101480004968C1F30221034A515CC84000BD000015
:1014900000100240663D000800B5FFF7E7FF044971
:1014A0004968C1F3C221034A515CC84000BD000035
:1014B00000100240663D000870B5002100220024A3
:1014C00000230020134D696801F00C05F5B1042DCF
:1014D00002D0082D19D101E00F4819E00F4DC1F3DA
:1014E0008346AB5D01F4803555B10A4D6D68C5F397
:1014F00040450B4E725D084D5D43B5FBF2F402E0D2
:10150000084D03FB05F4204602E000BF024800BF7F
:1015100000BF70BD0010024000127A00443D000878
:10152000543D000800093D00F8B504460CB90120FF
:10153000F8BD207800F00100002878D0F848406815
:1015400000F00C0004280CD0F548406800F00C00B6
:10155000082811D1F248406800F48030B0F5803F8F
:101560000AD1EF48006800F4003000285FD06068BE
:1015700000285CD10120DBE700BF6068B0F5803F48
:1015800006D1E748006840F48030E549086028E06B
:10159000606858B9E248006820F48030E04908608B
:1015A0000846006820F4802008601AE06068B0F502
:1015B000A02F0BD1DA48006840F48020D849086099
:1015C0000846006840F4803008600AE0D4480068AB
:1015D00020F48030D24908600846006820F480205A
:1015E000086000BF606888B1FFF70AFD054606E0A5
:1015F000FFF706FD401B642801D9032098E7C8487F
:10160000006800F400300028F2D010E0FFF7F8FC8A
:10161000054606E0FFF7F4FC401B642801D90320CF
:1016200086E7BF48006800F400300028F2D1207837
:1016300000F00200022857D1B948406800F00C00C1
:1016400050B1B748406800F00C00082818D1B448E1
:10165000406800F4803098B9B148006800F002009A
:1016600020B12069012801D0012061E7AC48006861
:1016700020F0F800616940EAC100A949086033E040
:101680002069E8B10120A7490860FFF7B9FC0546C9
:1016900006E0FFF7B5FC401B022801D9032047E70D
:1016A0009F48006800F002000028F2D09C480068C3
:1016B00020F0F800616940EAC1009949086013E030
:1016C000002098490860FFF79BFC054606E0FFF7FD
:1016D00097FC401B022801D9032029E790480068A5
:1016E00000F002000028F2D1207800F0080008285D
:1016F0002DD1A069B8B101208B490860FFF780FCAB
:10170000054606E0FFF77CFC401B022801D90320B8
:101710000EE78348406A00F002000028F2D0012062
:1017200000F0FAFD13E000207F490860FFF768FC35
:10173000054606E0FFF764FC401B022801D90320A0
:10174000F6E67748406A00F002000028F2D12078DF
:1017500000F00400042873D100277148C06900F02C
:10176000805070B900BF6E48C06940F080506C492D
:10177000C8610846C06900F08050009000BF00BFFB
:1017800001276A48006800F48070B0B967480068B3
:1017900040F4807065490860FFF732FC054606E0BA
:1017A000FFF72EFC401B642801D90320C0E65F48E8
:1017B000006800F480700028F2D000BFE0680128C3
:1017C00006D15748006A40F001005549086227E0F9
:1017D000E06858B95248006A20F001005049086298
:1017E0000846006A20F00400086219E0E068052855
:1017F0000BD14B48006A40F0040049490862084692
:10180000006A40F0010008620AE04548006A20F0E2
:101810000100434908620846006A20F0040008629B
:1018200000BFE068A0B1FFF7EBFB054609E0FFF75A
:10183000E7FB401B41F28831884202D9032077E65A
:1018400022E03748006A00F002000028EFD012E0E2
:10185000FFF7D6FB054608E0FFF7D2FB401B41F23D
:101860008831884201D9032062E62D48006A00F0E1
:1018700002000028F0D1012F05D12948C06920F0CD
:1018800080502749C86100BFE069C8B32448406858
:1018900000F00C00082860D0E069022848D1002040
:1018A00020490866FFF7ACFB054606E0FFF7A8FBFA
:1018B000401B022801D903203AE61948006800F0CD
:1018C00000700028F2D1206AB0F5803F07D114489B
:1018D000406820F40030A168084311494860D4E909
:1018E000080108430E49496821F4741108430C4962
:1018F000486001200B490866FFF782FB054607E0B8
:101900003DE0FFF77DFB401B022801D903200FE6D5
:101910000348006800F000700028F2D02FE00000BB
:101920000010024000004242800442420070004029
:10193000002014490866FFF763FB054606E0FFF741
:101940005FFB401B022801D90320F1E50E48006827
:1019500000F000700028F2D111E0E069012800D108
:10196000E6E50948466806F48031206A814204D1E0
:1019700006F47011606A814201D00120D8E5002090
:10198000D6E50000000042420010024010B50446B7
:101990000CB9012010BD606A38B96068B0F5827F6B
:1019A00000D105E00021E16102E0002121616161D7
:1019B0000021A16294F8510028B9002084F8500059
:1019C000204600F043F8022084F8510020680068A7
:1019D00020F0400021680860A08800F4827021890E
:1019E00001F404410843A18901F400610843217C0A
:1019F00001F002010843217D01F001010843218B20
:101A000001F400710843217F01F0380108432021CF
:101A1000095D01F080010843218D01F40051084364
:101A2000216808600421A06901EA1040216848602B
:101A30002068C06920F400602168C86100206065EA
:101A4000012084F851000020A4E7000010B586B002
:101A50000446002002900390049005901E492068DF
:101A6000884236D100BF1D48806940F480501B4930
:101A700088610846806900F48050019000BF00BF73
:101A800000BF0846806940F0080088610846806908
:101A900000F00800019000BF00BF28200290022043
:101AA00003900320059002A90D48FFF70BF91020C1
:101AB000029000200390049002A90948FFF702F960
:101AC00000BF0849486840F0E06040F0010048600D
:101AD00000BF06B010BD0000003001400010024001
:101AE000000C0140000001402DE9FE4F04460F4666
:101AF00090461D460C9E01200190FFF781FA814619
:101B000094F851B060680290AA46BBF1010F0BD067
:101B10000298B0F5827F04D1A06810B9BBF1040F20
:101B200002D00220BDE8FE8F1FB1B8F1000F00D037
:101B30000DB90120F6E700BF94F85000012801D14B
:101B40000220EFE7012084F8500000BF94F8510014
:101B5000042802D0052084F8510000206065C4F8F4
:101B60003880E587A5872763E586A58620646064BD
:101B70002068006800F04000402805D02068006818
:101B800040F0400021680860E068B0F5006F52D175
:101B9000606810B1BAF1010F09D1206B008821688B
:101BA000C860206B801C2063E08E401EE0863BE016
:101BB0002068806800F00200022810D1E08E70B129
:101BC000019801280BD1206B00882168C860206B28
:101BD000801C2063E08E401EE0860020019020687B
:101BE000806800F0010068B1E08F58B12068C068DB
:101BF000A16B0880A06B801CA063E08F401EE08773
:101C000001200190FFF7FCF9A0EB0900B0420BD3D3
:101C1000701C48B1012084F8510000BF002084F8F6
:101C2000500000BF03207DE7E08E0028C0D1E08F88
:101C30000028BDD152E0606810B1BAF1010F09D19E
:101C4000206B007821680873206B401C2063E08EB5
:101C5000401EE0863CE02068806800F00200022818
:101C600010D1E08E70B1019801280BD1206B007863
:101C700021680873206B401C2063E08E401EE086C4
:101C8000002001902068806800F0010068B1E08FBA
:101C900058B12068C068A16B0870A06B401CA0639D
:101CA000E08F401EE08701200190FFF7A9F9A0EB2B
:101CB0000900B04201D3701C00B94EB9012084F86C
:101CC000510000BF002084F8500000BF032029E726
:101CD000E08E0028BFD1E08F0028BCD14A463146B3
:101CE000204600F0E1FC40B12020606500BF0020EC
:101CF00084F8500000BF012014E7A06850B900BF6D
:101D0000002000902068C0680090206880680090E3
:101D100000BF00BF012084F8510000BF002084F8FC
:101D2000500000BF606D08B10120FBE60020F9E61D
:101D300070B504462546681EB0F1807F01D30120AE
:101D40000FE0681E4FF0E02148610F214FF0FF3097
:101D500000F0AAFE00204FF0E02188610720086112
:101D6000002070BD10B504460CB9012010BDA0695B
:101D700000B100E000BF94F8410028B9002084F8C9
:101D80004000204600F02AF8242084F84100206812
:101D9000C06820F400502168C860204600F0A6FD0D
:101DA0002068006920F4904021680861206840693B
:101DB00020F02A00216848612068C06840F4005083
:101DC0002168C86000206064202084F8410084F805
:101DD00042000020606300BFC8E7000010B586B075
:101DE0000446002002900390049005901A49206850
:101DF00088422ED100BF1948806940F480401749BD
:101E000088610846806900F48040019000BF00BFEF
:101E100000BF0846806940F0040088610846806978
:101E200000F00400019000BF00BF4815029002209E
:101E300003900320059002A90948FEF743FF4FF4E1
:101E40008060029000200390049002A90448FEF7ED
:101E500039FF06B010BD00000038014000100240FC
:101E6000000801402DE9F84F04460E4617469946F2
:101E70004FF0000A94F84100202850D106B117B95C
:101E80000120BDE8F88F00206064212084F8410023
:101E9000FFF7B6F88246A784E784A068B0F5805FB4
:101EA00004D1206910B90025B04602E035464FF054
:101EB00000081EE05346002280212046CDF8009005
:101EC00000F092FD20B1202084F841000320D8E7E3
:101ED00045B9B8F80000C0F308002168486008F16F
:101EE000020803E02878216848606D1CE08C401EE1
:101EF000E084E08C0028DDD15346002240212046BA
:101F0000CDF8009000F070FD20B1202084F8410051
:101F10000320B6E7202084F841000020B1E702202A
:101F2000AFE700BFFEE700000649098801800549C8
:101F30004988418003498988C1800249C9888180D4
:101F400070470000B200002010B504220249034887
:101F5000FEF794FC10BD0000B2000020C00000207D
:101F600070B500244FF400615848FFF73BF8A8B95A
:101F70000A2001F031FC4FF400615448FFF732F8B9
:101F800060B902E0012001F027FC4FF400614F48E6
:101F9000FFF728F80028F5D044F001044FF4804101
:101FA0004A48FFF71FF8A8B90A2001F015FC4FF4C2
:101FB00080414648FFF716F860B902E0012001F0C1
:101FC0000BFC4FF480414148FFF70CF80028F5D096
:101FD00044F002044FF400513C48FFF703F8A8B95D
:101FE0000A2001F0F9FB4FF400513848FEF7FAFFE0
:101FF00060B902E0012001F0EFFB4FF400513348DB
:10200000FEF7F0FF0028F5D044F004044FF48051AF
:102010002E48FEF7E7FFA8B90A2001F0DDFB4FF4D8
:1020200080512A48FEF7DEFF60B902E0012001F08E
:10203000D3FB4FF480512548FEF7D4FF0028F5D09C
:1020400044F0080404212148FEF7CCFF98B90A2087
:1020500001F0C2FB04211D48FEF7C4FF58B902E09D
:10206000012001F0B9FB04211848FEF7BBFF00284E
:10207000F6D044F010044FF480611448FEF7B2FF2C
:1020800010BB0A2001F0A8FB4FF480610F48FEF757
:10209000A9FFC8B901F0DAFC064602E0012001F010
:1020A0009BFB4FF480610948FEF79CFF0028F5D0A8
:1020B00001F0CCFC851BB5F57A7F02D344F04004D7
:1020C00001E044F0200400BF204670BD000C014038
:1020D0000EB500200090019002902348234908602B
:1020E00081152248816001210173002101754FF49F
:1020F0006021C16100201D49486004211B48016125
:10210000FEF7C2FA08B1FEF708FA0120009001902C
:102110000220029069461548FEF702FA08B1FEF760
:10212000FCF9062000900220019069460F48FEF756
:10213000F7F908B1FEF7F1F90220009003200190B1
:1021400069460A48FEF7ECF908B1FEF7E6F9032004
:1021500000900420019069460448FEF7E1F908B1B7
:10216000FEF7DBF90EBD000000240140C000002096
:1021700008B500BF0A48406940F0010008494861BD
:102180000846406900F00100009000BF00BF002237
:1021900011460B20FEF7BAFF0B20FEF7A7FF08BD84
:1021A0000010024000B585B000200190029003901D
:1021B000049000BF3448806940F0100032498861C3
:1021C0000846806900F01000009000BF00BF00BF0B
:1021D0000846806940F0200088610846806900F068
:1021E0002000009000BF00BF00BF0846806940F09B
:1021F000040088610846806900F00400009000BF78
:1022000000BF00BF0846806940F0080088610846AA
:10221000806900F00800009000BF00BF0122D103D8
:102220001A48FEF7E7FE0122D1031948FEF7E2FE45
:10223000002280211548FEF7DDFE47F6044001909C
:10224000002002900120039001A91048FEF73AFDFA
:1022500048F28000019001200290002003900220AB
:10226000049001A90948FEF72DFD4FF400400190AC
:1022700001200290002003900220049001A904484C
:10228000FEF720FD05B000BD00100240000C01402B
:102290000008014010B50E480E4908604FF48270E6
:1022A000486000210B488160C160016141614FF4C9
:1022B000007181611021C16100210162416281626E
:1022C0000A21C162FFF762FB08B1FEF726F910BDD3
:1022D000003001403401002010B50B480B49086064
:1022E0004FF4E1304860002108488160C16001611D
:1022F0000C21416100218161C161FFF733FD08B10B
:10230000FEF70BF910BD0000003801408C010020E1
:1023100000BFFEE700BFFEE708B508490968C90825
:102320004FF47A72B1FBF2F14143009100BF00BF5C
:1023300000994A1E00920029F9D108BD0C00002026
:1023400010B5C820FEF7AAFC14E05C2116A0FDF72A
:1023500057FF28B15C2114A0FDF752FF401C00E09C
:1023600011A004462D22214616A000F085FB322044
:10237000FEF794FC00F0FCF80028E6D100F058F8D5
:102380005C2109A0FDF73CFF28B15C2106A0FDF708
:1023900037FF401C00E004A004463322214618A069
:1023A00000F06AFB10BD0000696E746572666163BF
:1023B000655F48575C496E745F5349323452312E21
:1023C000630000005B44454255475D2025733A2574
:1023D000643A2053493234523120636F6D6D756E0B
:1023E00069636174696F6E206572726F722C2072FE
:1023F00065747279696E672E2E2E0A0A000000003D
:102400005B44454255475D2025733A25643A205385
:10241000493234523120636F6D6D756E696361743A
:10242000696F6E20737563636573730A0A00000039
:1024300010B5002280211548FEF7DCFD0522144965
:102440002A2000F0F3F80121212000F013F90121E6
:10245000222000F00FF94021252000F00BF9202167
:10246000312000F007F90621262000F003F90F21A2
:10247000202000F0FFF8FF21272000F0FBF80122C8
:1024800080210248FEF7B6FD10BD0000000C01409F
:10249000A80000202DE9F04107460D46164600220F
:1024A0004FF400410C48FEF7A5FD384600F01EF938
:1024B0008046002405E0002000F018F92855601C33
:1024C000C4B2B442F7DB0122D1030348FEF792FD08
:1024D0004046BDE8F08100000008014070B50446A8
:1024E00000224FF400410848FEF784FD204600F02A
:1024F000FDF8002000F0FAF805460122D103024859
:10250000FEF778FD284670BD0008014010B5002296
:1025100080211548FEF76EFD05221449302000F099
:1025200085F8052211492A2000F080F80121212098
:1025300000F0A0F80121222000F09CF80A212420BC
:1025400000F098F84021252000F094F8062126207C
:1025500000F090F80E21202000F08CF8012280215C
:102560000148FEF747FD10BD000C0140A800002007
:1025700010B505220E491020FFF78CFF05220D49EA
:10258000302000F053F8052209491020FFF782FFA0
:10259000002108E00648405C064A525C904201D0A7
:1025A000012010BD491C0529F4DB0020F9E70000DB
:1025B000AD000020A800002070B505460022802153
:1025C0001948FEF717FD20222946A02000F02EF81A
:1025D000012280211448FEF70DFD0720FFF77EFF42
:1025E000044606E00720FFF779FF0446012001F0CA
:1025F000F3F804F0200018B904F010000028F1D01E
:102600002146272000F036F804F0100028B1FF2101
:10261000E12000F02FF8102070BD04F0200008B178
:102620002020F9E7FF20F7E7000C01402DE9F041F9
:1026300007460C46154600224FF400410C48FEF7B1
:10264000D9FC384600F052F88046002605E014F820
:10265000010B00F04BF8701CC6B2AE42F7DB012252
:10266000D1030348FEF7C6FC4046BDE8F0810000F8
:102670000008014070B505460C4600224FF40041A9
:102680000848FEF7B7FC284600F030F8064620461A
:1026900000F02CF80122D1030248FEF7ABFC3046D3
:1026A00070BD000000080140F8B504460E4615460E
:1026B0003346012202212046009500F027F828B178
:1026C000606D40F0200060650320F8BD33460022B5
:1026D00080212046009500F019F828B1606D40F087
:1026E000200060650320F0E70020EEE701B582B02E
:1026F0004FF47A70012301AA02A900900248FFF763
:10270000F3F99DF804000EBD340100202DE9F84FC7
:1027100004460D4690461E46DDF82890FEF770FCF4
:10272000A0EB0900371AFEF76BFC82462C480068C4
:10273000C0F3CB307843009045E0701C002842D0B5
:10274000FEF75EFCA0EB0A00B84200D2A7BB2068EF
:10275000406820F0E000216848606068B0F5827F42
:102760000DD1A068B0F5004F03D0A068B0F5806F20
:1027700005D12068006820F0400021680860A06A48
:10278000B0F5005F0DD100BF2068006820F4005054
:10279000216808602068006840F4005021680860E3
:1027A00000BF012084F8510000BF002084F85000D1
:1027B00000BF0320BDE8F88FFFE7009800B90027AD
:1027C0000098401E0090206880682840A84201D1EF
:1027D000012000E000204045AFD10020EAE70000E2
:1027E0000C00002010B501F021F9012801D001F002
:1027F00095F8FEF70BFC10BD00B593B0282109A891
:10280000FDF7F3FC142104A8FDF7EFFC0020009075
:102810000190029003900120099000040A9000208A
:102820000B9001200D9002201090C10311914FF4E4
:10283000E011129109A8FEF777FE08B1FDF76DFED1
:102840000F20049002200590002006904FF4806035
:10285000079000200890022104A8FEF741FD08B16E
:10286000FDF75BFE02200090800302906846FEF7B1
:102870009FFC08B1FDF751FE13B000BD704700BFCB
:1028800000BF02680C3252E8002F22F490710268F7
:102890000C3242E80013002BF3D100BF00BF00BF91
:1028A0000268143252E8002F22F00101026814324B
:1028B00042E80013002BF3D100BF016B01290ED1B8
:1028C00000BF00BF02680C3252E8002F22F0100156
:1028D00002680C3242E80013002BF3D100BF202124
:1028E00080F84210002101637047000070B5044673
:1028F0002168096921F44051E2681143226811619D
:102900002269A1681143626941EA02052168C96828
:1029100041F20C62914329432268D16021684969E0
:1029200021F44071A2691143226851612D4A216846
:10293000914202D1FEF7B0FD01E0FEF79DFD00EBF4
:10294000C00101EB001162689200B1FBF2F100EBF3
:10295000C00202EB001263689B00B2FBF3F2642337
:10296000B2FBF3F202EBC20303EB0212A1EB820112
:10297000322202EB01116422B1FBF2F101F0F0010D
:1029800000EBC00202EB001263689B00B2FBF3F2A3
:102990006423B2FBF3F201EB021200EBC00101EB86
:1029A000001163689B00B1FBF3F100EBC00303EB84
:1029B00000136668B600B3FBF6F36426B3FBF6F3C8
:1029C00003EBC30606EB0313A1EB8301322303EBF6
:1029D00001116423B1FBF3F101F00F0111442268EE
:1029E000916070BD003801402DE9F84304460D4662
:1029F00017469846089E31E0701C70B3FEF700FB46
:102A0000A0EB0800B04200D816B90320BDE8F88357
:102A10002068C06800F00400F8B1802D1ED0402D61
:102A20001CD020680068C0F3C000B0B100BF002017
:102A3000009020680068009020684068009000BF07
:102A400000BF2046FFF71BFF0820606400BF002086
:102A500084F8400000BF0120D8E7FFE72068006845
:102A60002840A84201D1012000E00020B842C3D094
:102A70000020CBE700BFFEE70FB4054B10B503A95C
:102A8000044A029800F034F810BC5DF814FB000012
:102A9000812F0008BC00002002480068C0F302201B
:102AA000704700000CED00E010B5002804DB0A07B9
:102AB000130E054A135406E00A07140E034A00F0E9
:102AC0000F031B1FD45410BD00E400E018ED00E01C
:102AD00002E008C8121F08C1002AFAD170477047E7
:102AE000002001E001C1121F002AFBD17047000045
:102AF0002DE9FF4F8DB00F460546002606E025283C
:102B00000BD0DDE90F1290476D1C761C2878002849
:102B1000F5D111B03046BDE8F08F0024A246A146A1
:102B20000122EC4900E0044315F8013F203B02FA82
:102B300003F00842F7D128782A2810D06FF02F022E
:102B40002878A0F13001092914D80AEB8A0102EB98
:102B5000410144F0020400EB010A6D1CF0E701CFD3
:102B60005FEA000A03D544F40054CAF1000A44F0B5
:102B700002046D1C28782E2817D115F8010F44F097
:102B800004042A280ED06FF02F022878A0F130011B
:102B900009290AD809EB890102EB410100EB01097F
:102BA0006D1CF2E757F8049B6D1C28786C280FD039
:102BB00006DC4C2817D068280DD06A2814D104E010
:102BC000742810D07A280FD10DE044F400140AE0E4
:102BD00044F4801401E044F440146978814202D145
:102BE00004F580146D1C6D1C2A786E2A1FD00CDC35
:102BF000632A31D004DC002A8BD0582A11D1A3E0FB
:102C0000642A68D0692A0CD165E0732A2ED004DCCE
:102C10006F2A73D0702A04D19BE0752A6FD0782A6E
:102C20006ED01046DDE90F129047761C50E1C4F3D8
:102C30000250022806D0032809D0042801CF09D069
:102C4000066045E101CFF117C0E9006140E101CF25
:102C500006803DE106703BE117F8040B8DF800009B
:102C600000208DF80100EB46012003E057F804BB7B
:102C70004FF0FF3061074FF0000102D40DE008F182
:102C80000101884649450FDA8045F8DB1BF808103A
:102C90000029F4D108E008F1010188468142FADBFD
:102CA0001BF808100029F6D1DDE90F23AAEB080074
:102CB0008146214600F036F9304400EB080604E076
:102CC000DDE90F121BF8010B9047B8F10108F7D2AC
:102CD00021464846F7E00A21C4F302534FF0000BA7
:102CE0000891022B04D001CFC117032B09D00AE0B1
:102CF000FF1D27F00707F7E8020108E032E01FE0B8
:102D000020E000B2C117042B01D140B2C117031E4D
:102D100071F1000307DA4FF0000CD0EB0C006CEB04
:102D200001012D2302E0230504D52B238DF8243047
:102D3000012303E0E30701D02023F7E7984658E09A
:102D40000A2110E010210EE010204FF0000B089037
:102D50000CE010214FF0000B44F004044FF0080980
:102D6000089103E008214FF0000B0891C4F30253CF
:102D7000022B04D001CF0021032B06D006E0FF1D5B
:102D800027F00707F7E8020103E080B2042B00D127
:102D9000C0B24FF0000823072BD5702A07D0DDF80A
:102DA00020C08CF0100C5CEA0B0C05D00EE0402328
:102DB0008DF82430012308E050EA010306D03023C7
:102DC0008DF824308DF8252002239846DDF820C0A8
:102DD0008CF0080C5CEA0B0C0BD150EA010301D11A
:102DE000630706D530238DF824304FF00108A9F190
:102DF0000109582A04D038A20B9208AA0A920BE0C3
:102E00003AA2F9E75B46089AFDF70AFA0B9B9B5C2E
:102E10000A9A521E0A92137050EA0102F2D10A98DD
:102E2000ADEB000000F1200B600702D524F48034E4
:102E300001E04FF00109D94502DDA9EB0B0000E0EC
:102E4000002000EB0B0141440890AAEB010AE003CB
:102E500006D4DDE90F232146504600F063F806440E
:102E60004FF0000908E009A911F80900DDE90F1287
:102E7000904709F10109761CC145F4DBE0030CD54C
:102E8000DDE90F232146504600F04CF8064404E0EB
:102E9000DDE90F1230209047761C0899481E0890F3
:102EA0000029F5DC08E00A980A990078491C0A9183
:102EB000DDE90F129047761CBBF10001ABF1010B6D
:102EC000F1DC21465046DDE90F2300F019F80644F5
:102ED0006D1C1BE60928010030313233343536379A
:102EE0003839616263646566000000003031323356
:102EF00034353637383941424344454600000000F6
:102F00002DE9F041044600251E461746880404D4E6
:102F100005E039462020B0476D1C641EF9D52846CF
:102F2000BDE8F0812DE9F041044600251E4690469B
:102F3000C80301D5302700E02027880404D505E028
:102F400041463846B0476D1C641EF9D52846BDE899
:102F5000F081000008B500F079FD00900CE0FFF76B
:102F6000D5FA0648FFF728FBFFF762FA00BF0621F3
:102F7000684600F021FD00BFF1E700008800002056
:102F800013B50C464FF47A73012269460248FEF7E6
:102F900069FF00981CBD00008C0100201FB500F0E7
:102FA00055FD0390FEF7D0FF25E01348FEF7BCFF68
:102FB0005C2112A0FDF724F928B15C210FA0FDF7D8
:102FC0001FF9401C00E00DA004460B4880880A4908
:102FD000C988094A5288CDE9002102900648038831
:102FE000AD2221460CA0FFF747FD00BF142103A826
:102FF00000F0E2FC00BFD8E77C0000204170706C5C
:1030000069636174696F6E5C4150505F46726565BB
:1030100052544F532E6300005B44454255475D2098
:1030200025733A25643A203A25642C25642C2564BE
:103030002C25640A0A00000008B500F007FD009086
:103040001EE0FEF78DFF0446002C12D05C210DA07F
:10305000FDF7D6F828B15C210AA0FDF7D1F8401C95
:1030600000E008A005462346992229460CA0FFF758
:1030700003FD00BF1421684600F09EFC00BF00BFA6
:10308000DFE700004170706C69636174696F6E5CAA
:103090004150505F4672656552544F532E63000095
:1030A0005B44454255475D2025733A25643A204BE1
:1030B0006579205374617475733A20253032580D48
:1030C0000A0A0000FDF7AEFFFFF796FBFFF76AF86C
:1030D000FFF74EF8FFF700F9FFF7DCF8FEF7F8FF0F
:1030E0005C210BA0FDF78CF828B15C2108A0FDF74E
:1030F00087F8401C00E006A004466522214609A08E
:10310000FFF7BAFCFFF71CF9FDF792F900BFFEE7E5
:103110002E2E2F436F72652F5372632F6D61696E70
:103120002E6300005B44454255475D2025733A25D8
:10313000643A2048656C6C6F2052656D6F74652130
:103140000A0A000008B500F081FC009014E000BFFE
:1031500042F21071684600F02FFC00BF00224FF4CD
:1031600000410648FDF746FF642000F035FB0122D0
:10317000D1030248FDF73EFFE9E70000000C0140E3
:103180002DE9F04105460E462648076826480068A6
:10319000001D00F08FFA50B92348006890F82C10F9
:1031A0000120884021490968814320480160681C4A
:1031B000D8B9D6B11E4948681B49096888601A49C0
:1031C00082680968CA6018490968091D82685160E7
:1031D00015490968091D8160154A134909684A6142
:1031E00011460968491C11601AE07C190E480068F4
:1031F0004460BC4207D20C480168091D0D480068B4
:1032000000F07CFA0CE008480168091D0A480068D3
:1032100000F074FA09480068844201D2074804604B
:10322000BDE8F081240000201000002028000020CC
:103230008802002018000020140000204000002018
:1032400010B5044600F074FA2F480068401C2E495F
:1032500008602E48006840B92C48046008460068A1
:1032600001280DD100F016F90AE02948006838B9A4
:1032700026480068C06AE16A884201D82348046091
:1032800024480068401C2349086094F82C10012051
:1032900088402149096808431F490860E16A01EB39
:1032A00081011E4A02EB81014868A0608268E260E9
:1032B000211D826851608160E16A01EB8101174A3A
:1032C00002EB81026261E16A01EB8101134A52F86B
:1032D0002110491CE26A02EB8202104B43F82210D3
:1032E00000F038FA0A48006868B108480068C06A07
:1032F000E16A884207D24FF0805009490860BFF365
:103300004F8FBFF36F8F10BD2000002010000020F2
:103310002C0000203C00002028000020D4010020C8
:1033200004ED00E010B516E000F002FA0C48C068A9
:10333000C468201D00F0BEF90A480068401E094913
:10334000086009480068401E0749086000F002FA5A
:10335000204600F00BF8044800680028E4D110BDB6
:1033600074020020200000201C00002010B504463C
:10337000206B00F0FFF9204600F0FCF910BD0000C2
:1033800030B54FF48843154800F007042CB1C01D38
:1033900020F00700114C041B1B1B0246104C22603E
:1033A00000240F4D6C60D018083820F007000D4C39
:1033B000206000240B4D2D686C600A4D2D682C6038
:1033C0001146441A4C60074C24680C60064D4C684A
:1033D0002C60064D4C682C6030BD00009C02002023
:1033E0005000002058000020600000205C000020F9
:1033F00000BFFFF797FF064800680128F9D94FF092
:10340000805004490860BFF34F8FBFF36F8FF0E720
:10341000D401002004ED00E02DE9FF5F80460E4658
:103420009146DDE90E7A109CA9F10100216B01EBB8
:10343000800B2BF0070B7EB1002507E0715D04F1D6
:1034400034004155705D00B902E06D1C102DF5D3BC
:1034500000BF002143200155052F00D30427E76258
:10346000201D00F048F904F1180000F044F924612F
:10347000C7F10500A061646241465846039A00F016
:1034800007F92060BAF1000F01D0CAF80040BDE88A
:10349000FF9F000010B5002407E004EB84010F4AF1
:1034A00002EB810000F01AF9641C052CF5D30C48DE
:1034B00000F014F90B4800F011F90B4800F00EF978
:1034C0000A4800F00BF90A4800F008F904480949D5
:1034D000086004480849086010BD0000D4010020BD
:1034E000380200204C0200206002002074020020FC
:1034F00088020020140000201800002010B50146AA
:10350000164800E0006803688B42FBD3024643681C
:1035100013448B4204D143684C6823444360014602
:103520000A464B6813440468A34211D10C4C03684B
:103530002468A34208D04B680468646823444B6045
:1035400003681B680B6005E0054B1B680B6001E01E
:1035500003680B60884200D0016010BD500000205D
:103560005800002009480068006808B9012000E000
:10357000002020B14FF0FF300549086005E0034806
:103580000068C068006802490860704714000020A5
:103590004000002000BFBF2080F31188BFF34F8F91
:1035A000BFF36F8F00BF00BFFEE700002DE9F047BB
:1035B00005464FF0000900F05FF93048006808B98F
:1035C000FFF7DEFE75B105F00700C0F11008C8F185
:1035D000FF30A84201D2012000E0002008B9454494
:1035E00000E00025012000EBE570002841D0002D0F
:1035F0003FD02348006885423BD8224E30460468BD
:1036000001E0264624686068A84202D220680028AB
:10361000F7D11A48006884422BD0306800F10809BD
:10362000206830606068401B102807D967196068FF
:10363000401B786065603846FFF760FF104960689E
:103640000968081A0E490860084600680E490968AA
:10365000884203D20A4800680B490860606840F05D
:10366000004060600020206008480068401C074956
:10367000086000F0B9FA4846BDE8F087580000201D
:103680005C0000205000002060000020640000204A
:10369000001F4FF080730360001F21F001030360DF
:1036A000001F034B0360143802602038704700008D
:1036B0009535000801460A69D1E901309860D1E9E1
:1036C000010358605068884201D18868506000202A
:1036D00008611068401E10601068704700F1080112
:1036E00041604FF0FF31816000F10801C16001616C
:1036F00000210160704700210161704710B502464A
:103700000B685C1C0CB9106907E002F1080000E0CE
:103710004068446824689C42FAD944684C604C680C
:10372000A160886041600A611468641C146010BD67
:1037300000BFBF2080F31188BFF34F8FBFF36F8F9F
:1037400000BF03480068401C014908607047000042
:103750006C00002006480068401E054908600846C5
:10376000006820B9002080F3118800BF00BF7047B7
:103770006C00002070B506463546E6B1083D2C4683
:103780006068C00FB8B12068A8B9606820F0004038
:10379000606000F071F808496068096808440649EB
:1037A00008602046FFF7AAFE04480068401C034951
:1037B000086000F019FA70BD5C000020680000206D
:1037C00000204FF0E021086188610248486107202D
:1037D000086170473F19010070B50446002544B1E7
:1037E00000F04AF800212046FFF7CAFC00F0FCF97F
:1037F00005463DB94FF0805003490860BFF34F8F35
:10380000BFF36F8F70BD000004ED00E01CB51248DF
:1038100000210B468022CDE9001010A1114800F0D4
:1038200097F80446012C14D100BFBF2080F3118803
:10383000BFF34F8FBFF36F8F00BF4FF0FF300A49C8
:10384000086001200949086000200949086000F06B
:103850004BF8084800681CBD4400002049444C4512
:1038600000000000F1330008400000202C00002080
:10387000240000204800002002480068401C014944
:10388000086070474C0000201248006818B1012001
:10389000114908601DE000200F4908600F480068CA
:1038A000B0FA80F0C0F11F0101EB81020C4B03EB79
:1038B000820042685268426000F108024368934205
:1038C00002D14268526842604268D268054B1A6071
:1038D00000BF70474C00002034000020280000206A
:1038E000D40100201000002010B50A48006840F400
:1038F0007F00084908600846006840F07F40086083
:10390000FFF75EFF002004490860FCF70BFC002075
:1039100010BD000020ED00E06C00002010B500BFDD
:10392000BF2080F31188BFF34F8FBFF36F8F00BFAD
:1039300000F092F818B14FF080500449086000BFC1
:10394000002080F3118800BF10BD000004ED00E0EE
:103950002DE9FF4F85B0804689461746DDE912AB59
:10396000B800FFF723FE064676B14C20FFF71EFE97
:1039700004462CB14C212046FCF737FC266304E0BA
:103980003046FFF7F7FE00E000247CB10020CDE9CF
:1039900000ABCDE902403A4649464046089BFFF756
:1039A0003BFD2046FFF74CFC012501E04FF0FF35C1
:1039B000284609B0BDE8F08F2DE9F0470446884657
:1039C0004FF00009FFF758FF16480668206800EB23
:1039D00008052068B04207D92068A8420BD9B54233
:1039E00009D94FF0010906E02068A84201D8B54284
:1039F00001D94FF001092560B9F1000F03D0A81BD0
:103A00000021FFF7BDFB00F0EFF807463FB94FF08C
:103A1000805005490860BFF34F8FBFF36F8F484652
:103A2000BDE8F0872400002004ED00E005490968A6
:103A300009B9012005E00449096809B9022000E03C
:103A4000002070472C0000204C000020014908682D
:103A500070470000240000202DE9F041002757485E
:103A6000006800287ED156480068451C544805600F
:103A70008DB95448D0F80080534800685149086017
:103A80005148C0F8008051480068401C4F49086008
:103A9000FFF768FD00BF4E480068854276D300BF3F
:103AA00048480068006808B9012000E0002020B103
:103AB0004FF0FF304649086067E042480068C06840
:103AC000C4686668B54202D2414806605DE060693C
:103AD000D4E902128A60D4E902214A60211D4268B9
:103AE0008A4201D1E1684160002262610168491E99
:103AF0000160A06A98B1A06AD4E907128A60D4E98B
:103B000007214A6004F1180142688A4201D1216A02
:103B100041600022A2620168491E016000BF94F862
:103B20002C10012088402B49096808432949086066
:103B3000E16A01EB8101284A02EB81014868A0603B
:103B40008268E260211D826851608160E16A01EB58
:103B50008101214A02EB81026261E16A01EB81018C
:103B60001D4A00E022E052F82110491CE26A02EBF3
:103B70008202194B43F822101849E06A0968C96AA1
:103B800088428DD901278BE700E000BF1348006809
:103B9000C06A00EB8000104951F82000012800D9CC
:103BA00001270F48006800B1012704E00D480068B4
:103BB000401C0C4908603846BDE8F0814C000020EC
:103BC00024000020140000201800002038000020ED
:103BD0004000002028000020D40100201000002018
:103BE000340000203000002070B500240026FFF7CC
:103BF0009FFD4B480068401E494908600846006820
:103C000000287DD147480068002879D05BE046480D
:103C1000C068C468A06AD4E907128A60D4E90721A1
:103C20004A6004F1180142688A4201D1216A416068
:103C30000022A2620168491E01606069D4E9021293
:103C40008A60D4E902214A60211D42688A4201D17A
:103C5000E1684160002262610168491E016094F8D8
:103C60002C10012088403149096808432F49086019
:103C7000E16A01EB81012E4A02EB81014868A060F4
:103C80008268E260211D826851608160E16A01EB17
:103C90008101274A02EB81026261E16A01EB810145
:103CA000234A52F82110491CE26A02EB8202204B9F
:103CB00043F822101F49E06A0968C96A884202D3A2
:103CC00001201D4908601848006808B9012000E07B
:103CD000002000289BD00CB1FFF744FC1748056872
:103CE00065B100BFFFF7B8FE10B1012012490860AE
:103CF0006D1E002DF6D10020104908600E4800E02E
:103D000009E0006838B1012630070D490860BFF3AB
:103D10004F8FBFF36F8FFFF71DFD304670BD000062
:103D20004C0000202000002060020020280000201D
:103D3000D4010020100000203400002030000020BA
:103D400004ED00E002030405060708090A0B0C0D48
:103D50000E0F101001020000000000000000010220
:103D60000304060708090000000001020304000024
:103D7000903D000800000020C0000000D02A00088C
:103D8000503E0008C0000020E0490000E02A000882
:103D900000000000100000000100000000127A0086
:103DA0000000000000000000000000000000000013
:103DB0000000000000000000000000000000000003
:103DC00000000000000000000000000000000000F3
:103DD00000000000000000000400000000000000DF
:103DE00000000000000000000000000000000000D3
:103DF000000000000000000000000000AAAAAAAA1B
:103E000000000000000000000000000000000000B2
:103E1000000000000000000068656C6C6F20776F88
:103E2000726C640000000000000000000000000050
:103E300000000000000000000A01080E0100000060
:103E40000000000000000000000000000000000072
:04000005080000ED02
:00000001FF
